{
  "_format": "hh-sol-artifact-1",
  "contractName": "ContraNFT",
  "sourceName": "src/ContraNFT.sol",
  "abi": [
    {
      "inputs": [
        {
          "internalType": "string",
          "name": "_name",
          "type": "string"
        },
        {
          "internalType": "string",
          "name": "_symbol",
          "type": "string"
        },
        {
          "internalType": "address",
          "name": "_paymentToken",
          "type": "address"
        },
        {
          "internalType": "uint256",
          "name": "_mintPrice",
          "type": "uint256"
        },
        {
          "internalType": "uint256",
          "name": "_maxSupply",
          "type": "uint256"
        },
        {
          "internalType": "address",
          "name": "_treasury",
          "type": "address"
        },
        {
          "internalType": "address",
          "name": "_beneficiary",
          "type": "address"
        }
      ],
      "stateMutability": "nonpayable",
      "type": "constructor"
    },
    {
      "inputs": [
        {
          "internalType": "uint256",
          "name": "requested",
          "type": "uint256"
        },
        {
          "internalType": "uint256",
          "name": "totalMinted",
          "type": "uint256"
        }
      ],
      "name": "BelowTotalMinted",
      "type": "error"
    },
    {
      "inputs": [
        {
          "internalType": "address",
          "name": "sender",
          "type": "address"
        },
        {
          "internalType": "uint256",
          "name": "tokenId",
          "type": "uint256"
        },
        {
          "internalType": "address",
          "name": "owner",
          "type": "address"
        }
      ],
      "name": "ERC721IncorrectOwner",
      "type": "error"
    },
    {
      "inputs": [
        {
          "internalType": "address",
          "name": "operator",
          "type": "address"
        },
        {
          "internalType": "uint256",
          "name": "tokenId",
          "type": "uint256"
        }
      ],
      "name": "ERC721InsufficientApproval",
      "type": "error"
    },
    {
      "inputs": [
        {
          "internalType": "address",
          "name": "approver",
          "type": "address"
        }
      ],
      "name": "ERC721InvalidApprover",
      "type": "error"
    },
    {
      "inputs": [
        {
          "internalType": "address",
          "name": "operator",
          "type": "address"
        }
      ],
      "name": "ERC721InvalidOperator",
      "type": "error"
    },
    {
      "inputs": [
        {
          "internalType": "address",
          "name": "owner",
          "type": "address"
        }
      ],
      "name": "ERC721InvalidOwner",
      "type": "error"
    },
    {
      "inputs": [
        {
          "internalType": "address",
          "name": "receiver",
          "type": "address"
        }
      ],
      "name": "ERC721InvalidReceiver",
      "type": "error"
    },
    {
      "inputs": [
        {
          "internalType": "address",
          "name": "sender",
          "type": "address"
        }
      ],
      "name": "ERC721InvalidSender",
      "type": "error"
    },
    {
      "inputs": [
        {
          "internalType": "uint256",
          "name": "tokenId",
          "type": "uint256"
        }
      ],
      "name": "ERC721NonexistentToken",
      "type": "error"
    },
    {
      "inputs": [],
      "name": "InsufficientPayment",
      "type": "error"
    },
    {
      "inputs": [],
      "name": "IsPaused",
      "type": "error"
    },
    {
      "inputs": [
        {
          "internalType": "address",
          "name": "owner",
          "type": "address"
        }
      ],
      "name": "OwnableInvalidOwner",
      "type": "error"
    },
    {
      "inputs": [
        {
          "internalType": "address",
          "name": "account",
          "type": "address"
        }
      ],
      "name": "OwnableUnauthorizedAccount",
      "type": "error"
    },
    {
      "inputs": [],
      "name": "PriceNotSet",
      "type": "error"
    },
    {
      "inputs": [
        {
          "internalType": "address",
          "name": "token",
          "type": "address"
        }
      ],
      "name": "SafeERC20FailedOperation",
      "type": "error"
    },
    {
      "inputs": [],
      "name": "SoldOut",
      "type": "error"
    },
    {
      "inputs": [],
      "name": "TransferFailed",
      "type": "error"
    },
    {
      "anonymous": false,
      "inputs": [
        {
          "indexed": true,
          "internalType": "address",
          "name": "owner",
          "type": "address"
        },
        {
          "indexed": true,
          "internalType": "address",
          "name": "approved",
          "type": "address"
        },
        {
          "indexed": true,
          "internalType": "uint256",
          "name": "tokenId",
          "type": "uint256"
        }
      ],
      "name": "Approval",
      "type": "event"
    },
    {
      "anonymous": false,
      "inputs": [
        {
          "indexed": true,
          "internalType": "address",
          "name": "owner",
          "type": "address"
        },
        {
          "indexed": true,
          "internalType": "address",
          "name": "operator",
          "type": "address"
        },
        {
          "indexed": false,
          "internalType": "bool",
          "name": "approved",
          "type": "bool"
        }
      ],
      "name": "ApprovalForAll",
      "type": "event"
    },
    {
      "anonymous": false,
      "inputs": [
        {
          "indexed": false,
          "internalType": "address",
          "name": "oldBeneficiary",
          "type": "address"
        },
        {
          "indexed": false,
          "internalType": "address",
          "name": "newBeneficiary",
          "type": "address"
        }
      ],
      "name": "BeneficiaryUpdated",
      "type": "event"
    },
    {
      "anonymous": false,
      "inputs": [
        {
          "indexed": false,
          "internalType": "uint256",
          "name": "oldMax",
          "type": "uint256"
        },
        {
          "indexed": false,
          "internalType": "uint256",
          "name": "newMax",
          "type": "uint256"
        }
      ],
      "name": "MaxSupplyUpdated",
      "type": "event"
    },
    {
      "anonymous": false,
      "inputs": [
        {
          "indexed": true,
          "internalType": "address",
          "name": "minter",
          "type": "address"
        },
        {
          "indexed": true,
          "internalType": "uint256",
          "name": "tokenId",
          "type": "uint256"
        }
      ],
      "name": "MintEvent",
      "type": "event"
    },
    {
      "anonymous": false,
      "inputs": [
        {
          "indexed": false,
          "internalType": "uint256",
          "name": "oldPrice",
          "type": "uint256"
        },
        {
          "indexed": false,
          "internalType": "uint256",
          "name": "newPrice",
          "type": "uint256"
        }
      ],
      "name": "MintPriceUpdated",
      "type": "event"
    },
    {
      "anonymous": false,
      "inputs": [
        {
          "indexed": true,
          "internalType": "address",
          "name": "previousOwner",
          "type": "address"
        },
        {
          "indexed": true,
          "internalType": "address",
          "name": "newOwner",
          "type": "address"
        }
      ],
      "name": "OwnershipTransferred",
      "type": "event"
    },
    {
      "anonymous": false,
      "inputs": [],
      "name": "Paused",
      "type": "event"
    },
    {
      "anonymous": false,
      "inputs": [
        {
          "indexed": false,
          "internalType": "address",
          "name": "oldToken",
          "type": "address"
        },
        {
          "indexed": false,
          "internalType": "address",
          "name": "newToken",
          "type": "address"
        }
      ],
      "name": "PaymentTokenUpdated",
      "type": "event"
    },
    {
      "anonymous": false,
      "inputs": [
        {
          "indexed": true,
          "internalType": "address",
          "name": "from",
          "type": "address"
        },
        {
          "indexed": true,
          "internalType": "address",
          "name": "to",
          "type": "address"
        },
        {
          "indexed": true,
          "internalType": "uint256",
          "name": "tokenId",
          "type": "uint256"
        }
      ],
      "name": "Transfer",
      "type": "event"
    },
    {
      "anonymous": false,
      "inputs": [
        {
          "indexed": false,
          "internalType": "address",
          "name": "oldTreasury",
          "type": "address"
        },
        {
          "indexed": false,
          "internalType": "address",
          "name": "newTreasury",
          "type": "address"
        }
      ],
      "name": "TreasuryUpdated",
      "type": "event"
    },
    {
      "anonymous": false,
      "inputs": [],
      "name": "Unpaused",
      "type": "event"
    },
    {
      "inputs": [
        {
          "internalType": "address",
          "name": "to",
          "type": "address"
        },
        {
          "internalType": "uint256",
          "name": "tokenId",
          "type": "uint256"
        }
      ],
      "name": "approve",
      "outputs": [],
      "stateMutability": "nonpayable",
      "type": "function"
    },
    {
      "inputs": [
        {
          "internalType": "address",
          "name": "owner",
          "type": "address"
        }
      ],
      "name": "balanceOf",
      "outputs": [
        {
          "internalType": "uint256",
          "name": "",
          "type": "uint256"
        }
      ],
      "stateMutability": "view",
      "type": "function"
    },
    {
      "inputs": [],
      "name": "beneficiary",
      "outputs": [
        {
          "internalType": "address",
          "name": "",
          "type": "address"
        }
      ],
      "stateMutability": "view",
      "type": "function"
    },
    {
      "inputs": [
        {
          "internalType": "uint256",
          "name": "tokenId",
          "type": "uint256"
        }
      ],
      "name": "getApproved",
      "outputs": [
        {
          "internalType": "address",
          "name": "",
          "type": "address"
        }
      ],
      "stateMutability": "view",
      "type": "function"
    },
    {
      "inputs": [
        {
          "internalType": "address",
          "name": "owner",
          "type": "address"
        },
        {
          "internalType": "address",
          "name": "operator",
          "type": "address"
        }
      ],
      "name": "isApprovedForAll",
      "outputs": [
        {
          "internalType": "bool",
          "name": "",
          "type": "bool"
        }
      ],
      "stateMutability": "view",
      "type": "function"
    },
    {
      "inputs": [],
      "name": "maxSupply",
      "outputs": [
        {
          "internalType": "uint256",
          "name": "",
          "type": "uint256"
        }
      ],
      "stateMutability": "view",
      "type": "function"
    },
    {
      "inputs": [],
      "name": "mint",
      "outputs": [],
      "stateMutability": "nonpayable",
      "type": "function"
    },
    {
      "inputs": [],
      "name": "mintPrice",
      "outputs": [
        {
          "internalType": "uint256",
          "name": "",
          "type": "uint256"
        }
      ],
      "stateMutability": "view",
      "type": "function"
    },
    {
      "inputs": [],
      "name": "name",
      "outputs": [
        {
          "internalType": "string",
          "name": "",
          "type": "string"
        }
      ],
      "stateMutability": "view",
      "type": "function"
    },
    {
      "inputs": [],
      "name": "owner",
      "outputs": [
        {
          "internalType": "address",
          "name": "",
          "type": "address"
        }
      ],
      "stateMutability": "view",
      "type": "function"
    },
    {
      "inputs": [
        {
          "internalType": "uint256",
          "name": "tokenId",
          "type": "uint256"
        }
      ],
      "name": "ownerOf",
      "outputs": [
        {
          "internalType": "address",
          "name": "",
          "type": "address"
        }
      ],
      "stateMutability": "view",
      "type": "function"
    },
    {
      "inputs": [],
      "name": "pause",
      "outputs": [],
      "stateMutability": "nonpayable",
      "type": "function"
    },
    {
      "inputs": [],
      "name": "paused",
      "outputs": [
        {
          "internalType": "bool",
          "name": "",
          "type": "bool"
        }
      ],
      "stateMutability": "view",
      "type": "function"
    },
    {
      "inputs": [],
      "name": "paymentToken",
      "outputs": [
        {
          "internalType": "contract IERC20",
          "name": "",
          "type": "address"
        }
      ],
      "stateMutability": "view",
      "type": "function"
    },
    {
      "inputs": [],
      "name": "renounceOwnership",
      "outputs": [],
      "stateMutability": "nonpayable",
      "type": "function"
    },
    {
      "inputs": [
        {
          "internalType": "address",
          "name": "from",
          "type": "address"
        },
        {
          "internalType": "address",
          "name": "to",
          "type": "address"
        },
        {
          "internalType": "uint256",
          "name": "tokenId",
          "type": "uint256"
        }
      ],
      "name": "safeTransferFrom",
      "outputs": [],
      "stateMutability": "nonpayable",
      "type": "function"
    },
    {
      "inputs": [
        {
          "internalType": "address",
          "name": "from",
          "type": "address"
        },
        {
          "internalType": "address",
          "name": "to",
          "type": "address"
        },
        {
          "internalType": "uint256",
          "name": "tokenId",
          "type": "uint256"
        },
        {
          "internalType": "bytes",
          "name": "data",
          "type": "bytes"
        }
      ],
      "name": "safeTransferFrom",
      "outputs": [],
      "stateMutability": "nonpayable",
      "type": "function"
    },
    {
      "inputs": [
        {
          "internalType": "address",
          "name": "operator",
          "type": "address"
        },
        {
          "internalType": "bool",
          "name": "approved",
          "type": "bool"
        }
      ],
      "name": "setApprovalForAll",
      "outputs": [],
      "stateMutability": "nonpayable",
      "type": "function"
    },
    {
      "inputs": [
        {
          "internalType": "address",
          "name": "_newBeneficiary",
          "type": "address"
        }
      ],
      "name": "setBeneficiary",
      "outputs": [],
      "stateMutability": "nonpayable",
      "type": "function"
    },
    {
      "inputs": [
        {
          "internalType": "uint256",
          "name": "_newMax",
          "type": "uint256"
        }
      ],
      "name": "setMaxSupply",
      "outputs": [],
      "stateMutability": "nonpayable",
      "type": "function"
    },
    {
      "inputs": [
        {
          "internalType": "uint256",
          "name": "_newPrice",
          "type": "uint256"
        }
      ],
      "name": "setMintPrice",
      "outputs": [],
      "stateMutability": "nonpayable",
      "type": "function"
    },
    {
      "inputs": [
        {
          "internalType": "address",
          "name": "_newToken",
          "type": "address"
        }
      ],
      "name": "setPaymentToken",
      "outputs": [],
      "stateMutability": "nonpayable",
      "type": "function"
    },
    {
      "inputs": [
        {
          "internalType": "address",
          "name": "_newTreasury",
          "type": "address"
        }
      ],
      "name": "setTreasury",
      "outputs": [],
      "stateMutability": "nonpayable",
      "type": "function"
    },
    {
      "inputs": [
        {
          "internalType": "bytes4",
          "name": "interfaceId",
          "type": "bytes4"
        }
      ],
      "name": "supportsInterface",
      "outputs": [
        {
          "internalType": "bool",
          "name": "",
          "type": "bool"
        }
      ],
      "stateMutability": "view",
      "type": "function"
    },
    {
      "inputs": [],
      "name": "symbol",
      "outputs": [
        {
          "internalType": "string",
          "name": "",
          "type": "string"
        }
      ],
      "stateMutability": "view",
      "type": "function"
    },
    {
      "inputs": [
        {
          "internalType": "uint256",
          "name": "tokenId",
          "type": "uint256"
        }
      ],
      "name": "tokenURI",
      "outputs": [
        {
          "internalType": "string",
          "name": "",
          "type": "string"
        }
      ],
      "stateMutability": "view",
      "type": "function"
    },
    {
      "inputs": [],
      "name": "totalMinted",
      "outputs": [
        {
          "internalType": "uint256",
          "name": "",
          "type": "uint256"
        }
      ],
      "stateMutability": "view",
      "type": "function"
    },
    {
      "inputs": [
        {
          "internalType": "address",
          "name": "from",
          "type": "address"
        },
        {
          "internalType": "address",
          "name": "to",
          "type": "address"
        },
        {
          "internalType": "uint256",
          "name": "tokenId",
          "type": "uint256"
        }
      ],
      "name": "transferFrom",
      "outputs": [],
      "stateMutability": "nonpayable",
      "type": "function"
    },
    {
      "inputs": [
        {
          "internalType": "address",
          "name": "newOwner",
          "type": "address"
        }
      ],
      "name": "transferOwnership",
      "outputs": [],
      "stateMutability": "nonpayable",
      "type": "function"
    },
    {
      "inputs": [],
      "name": "treasury",
      "outputs": [
        {
          "internalType": "address",
          "name": "",
          "type": "address"
        }
      ],
      "stateMutability": "view",
      "type": "function"
    },
    {
      "inputs": [],
      "name": "unpause",
      "outputs": [],
      "stateMutability": "nonpayable",
      "type": "function"
    }
  ],
  "bytecode": "0x608060405234801561000f575f5ffd5b50604051611c58380380611c5883398101604081905261002e916102eb565b3387875f61003c8382610417565b5060016100498282610417565b5050506001600160a01b03811661007a57604051631e4fbdf760e01b81525f60048201526024015b60405180910390fd5b610083816101e2565b506001600160a01b0385166100c75760405162461bcd60e51b815260206004820152600a6024820152693d32b937903a37b5b2b760b11b6044820152606401610071565b5f84116101035760405162461bcd60e51b815260206004820152600a6024820152697a65726f20707269636560b01b6044820152606401610071565b6001600160a01b0382166101495760405162461bcd60e51b815260206004820152600d60248201526c7a65726f20747265617375727960981b6044820152606401610071565b6001600160a01b0381166101925760405162461bcd60e51b815260206004820152601060248201526f7a65726f2062656e656669636961727960801b6044820152606401610071565b600780546001600160a01b039687166001600160a01b031991821617909155600894909455600992909255600a8054918516918416919091179055600b8054919093169116179055506104d19050565b600680546001600160a01b038381166001600160a01b0319831681179093556040519116919082907f8be0079c531659141344cd1fd0a4f28419497f9722a3daafe3b4186f6b6457e0905f90a35050565b634e487b7160e01b5f52604160045260245ffd5b5f82601f830112610256575f5ffd5b81516001600160401b0381111561026f5761026f610233565b604051601f8201601f19908116603f011681016001600160401b038111828210171561029d5761029d610233565b6040528181528382016020018510156102b4575f5ffd5b8160208501602083015e5f918101602001919091529392505050565b80516001600160a01b03811681146102e6575f5ffd5b919050565b5f5f5f5f5f5f5f60e0888a031215610301575f5ffd5b87516001600160401b03811115610316575f5ffd5b6103228a828b01610247565b60208a015190985090506001600160401b0381111561033f575f5ffd5b61034b8a828b01610247565b96505061035a604089016102d0565b606089015160808a01519196509450925061037760a089016102d0565b915061038560c089016102d0565b905092959891949750929550565b600181811c908216806103a757607f821691505b6020821081036103c557634e487b7160e01b5f52602260045260245ffd5b50919050565b601f82111561041257805f5260205f20601f840160051c810160208510156103f05750805b601f840160051c820191505b8181101561040f575f81556001016103fc565b50505b505050565b81516001600160401b0381111561043057610430610233565b6104448161043e8454610393565b846103cb565b6020601f821160018114610476575f831561045f5750848201515b5f19600385901b1c1916600184901b17845561040f565b5f84815260208120601f198516915b828110156104a55787850151825560209485019460019092019101610485565b50848210156104c257868401515f19600387901b60f8161c191681555b50505050600190811b01905550565b61177a806104de5f395ff3fe608060405234801561000f575f5ffd5b50600436106101dc575f3560e01c80636a326ab111610109578063a2309ff81161009e578063e985e9c51161006e578063e985e9c5146103c3578063f0f44260146103d6578063f2fde38b146103e9578063f4a0a528146103fc575f5ffd5b8063a2309ff81461038b578063b88d4fde14610394578063c87b56dd146103a7578063d5abeb01146103ba575f5ffd5b80638456cb59116100d95780638456cb59146103575780638da5cb5b1461035f57806395d89b4114610370578063a22cb46514610378575f5ffd5b80636a326ab1146103165780636f8b44b01461032957806370a082311461033c578063715018a61461034f575f5ffd5b80633013ce291161017f5780635c975abb1161014f5780635c975abb146102cc57806361d027b3146102d95780636352211e146102ec5780636817c76c146102ff575f5ffd5b80633013ce291461028b57806338af3eed1461029e5780633f4ba83a146102b157806342842e0e146102b9575f5ffd5b8063095ea7b3116101ba578063095ea7b3146102485780631249c58b1461025d5780631c31f7101461026557806323b872dd14610278575f5ffd5b806301ffc9a7146101e057806306fdde0314610208578063081812fc1461021d575b5f5ffd5b6101f36101ee366004611403565b61040f565b60405190151581526020015b60405180910390f35b610210610460565b6040516101ff919061144c565b61023061022b36600461145e565b6104ef565b6040516001600160a01b0390911681526020016101ff565b61025b610256366004611490565b610516565b005b61025b610525565b61025b6102733660046114b8565b610660565b61025b6102863660046114d1565b61071f565b600754610230906001600160a01b031681565b600b54610230906001600160a01b031681565b61025b6107a8565b61025b6102c73660046114d1565b6107e4565b600d546101f39060ff1681565b600a54610230906001600160a01b031681565b6102306102fa36600461145e565b610803565b61030860085481565b6040519081526020016101ff565b61025b6103243660046114b8565b61080d565b61025b61033736600461145e565b6108c1565b61030861034a3660046114b8565b61093f565b61025b610984565b61025b610997565b6006546001600160a01b0316610230565b6102106109d6565b61025b61038636600461150b565b6109e5565b610308600c5481565b61025b6103a2366004611558565b6109f0565b6102106103b536600461145e565b610a08565b61030860095481565b6101f36103d1366004611635565b610a79565b61025b6103e43660046114b8565b610aa6565b61025b6103f73660046114b8565b610b5d565b61025b61040a36600461145e565b610b9a565b5f6001600160e01b031982166380ac58cd60e01b148061043f57506001600160e01b03198216635b5e139f60e01b145b8061045a57506301ffc9a760e01b6001600160e01b03198316145b92915050565b60605f805461046e90611666565b80601f016020809104026020016040519081016040528092919081815260200182805461049a90611666565b80156104e55780601f106104bc576101008083540402835291602001916104e5565b820191905f5260205f20905b8154815290600101906020018083116104c857829003601f168201915b5050505050905090565b5f6104f982610be3565b505f828152600460205260409020546001600160a01b031661045a565b610521828233610c1b565b5050565b600d5460ff161561054957604051631309a56360e01b815260040160405180910390fd5b6008545f0361056b576040516313a8ad7d60e11b815260040160405180910390fd5b600954600c541061058f576040516352df9fe560e01b815260040160405180910390fd5b5f600c5f815461059e9061169e565b9182905550600754600854600a549293506001600160a01b039182169290916105cc91849133911684610c28565b600a5460405163b6b55f2560e01b8152600481018390526001600160a01b039091169063b6b55f25906024015f604051808303815f87803b15801561060f575f5ffd5b505af1158015610621573d5f5f3e3d5ffd5b5050505061062f3384610c5e565b604051839033907f3fffaa5804a26fcec0d70b1d0fb0a2d0031df3a5f9c8af2127c2f4360e97b463905f90a3505050565b610668610c77565b6001600160a01b0381166106b65760405162461bcd60e51b815260206004820152601060248201526f7a65726f2062656e656669636961727960801b60448201526064015b60405180910390fd5b600b54604080516001600160a01b03928316815291831660208301527fe72eaf6addaa195f3c83095031dd08f3a96808dcf047babed1fe4e4f69d6c622910160405180910390a1600b80546001600160a01b0319166001600160a01b0392909216919091179055565b6001600160a01b03821661074857604051633250574960e11b81525f60048201526024016106ad565b5f610754838333610ca4565b9050836001600160a01b0316816001600160a01b0316146107a2576040516364283d7b60e01b81526001600160a01b03808616600483015260248201849052821660448201526064016106ad565b50505050565b6107b0610c77565b600d805460ff191690556040517fa45f47fdea8a1efdd9029a5691c7f759c32b7c698632b563573e155625d16933905f90a1565b6107fe83838360405180602001604052805f8152506109f0565b505050565b5f61045a82610be3565b610815610c77565b6001600160a01b0381166108585760405162461bcd60e51b815260206004820152600a6024820152693d32b937903a37b5b2b760b11b60448201526064016106ad565b600754604080516001600160a01b03928316815291831660208301527f5efdfedf5aef119c431263f0656093045dffdf44b3d8f1b0f158dc295c3a0f8e910160405180910390a1600780546001600160a01b0319166001600160a01b0392909216919091179055565b6108c9610c77565b600c548110156108fa57600c5460405163119cdd4160e01b81526106ad918391600401918252602082015260400190565b600980549082905560408051828152602081018490527f44ecfc706d63e347851cfd40acfa6cf2e3a41faa3e8b460210c03938e84a91ad910160405180910390a15050565b5f6001600160a01b038216610969576040516322718ad960e21b81525f60048201526024016106ad565b506001600160a01b03165f9081526003602052604090205490565b61098c610c77565b6109955f610d96565b565b61099f610c77565b600d805460ff191660011790556040517f9e87fac88ff661f02d44f95383c817fece4bce600a3dab7a54406878b965e752905f90a1565b60606001805461046e90611666565b610521338383610de7565b6109fb84848461071f565b6107a23385858585610eae565b6060610a1382610be3565b505f610a2960408051602081019091525f815290565b90505f815111610a475760405180602001604052805f815250610a72565b80610a5184610fd6565b604051602001610a629291906116d9565b6040516020818303038152906040525b9392505050565b6001600160a01b039182165f90815260056020908152604080832093909416825291909152205460ff1690565b610aae610c77565b6001600160a01b038116610af45760405162461bcd60e51b815260206004820152600d60248201526c7a65726f20747265617375727960981b60448201526064016106ad565b600a54604080516001600160a01b03928316815291831660208301527f4ab5be82436d353e61ca18726e984e561f5c1cc7c6d38b29d2553c790434705a910160405180910390a1600a80546001600160a01b0319166001600160a01b0392909216919091179055565b610b65610c77565b6001600160a01b038116610b8e57604051631e4fbdf760e01b81525f60048201526024016106ad565b610b9781610d96565b50565b610ba2610c77565b60085460408051918252602082018390527f2e1c9e000c6e8dda4d03536adb13b7cb6034ccff90d17f01de381e4d5097b525910160405180910390a1600855565b5f818152600260205260408120546001600160a01b03168061045a57604051637e27328960e01b8152600481018490526024016106ad565b6107fe8383836001611066565b610c3684848484600161116a565b6107a257604051635274afe760e01b81526001600160a01b03851660048201526024016106ad565b610521828260405180602001604052805f8152506111d7565b6006546001600160a01b031633146109955760405163118cdaa760e01b81523360048201526024016106ad565b5f828152600260205260408120546001600160a01b0390811690831615610cd057610cd08184866111ee565b6001600160a01b03811615610d0a57610ceb5f855f5f611066565b6001600160a01b0381165f90815260036020526040902080545f190190555b6001600160a01b03851615610d38576001600160a01b0385165f908152600360205260409020805460010190555b5f8481526002602052604080822080546001600160a01b0319166001600160a01b0389811691821790925591518793918516917fddf252ad1be2c89b69c2b068fc378daa952ba7f163c4a11628f55a4df523b3ef91a4949350505050565b600680546001600160a01b038381166001600160a01b0319831681179093556040519116919082907f8be0079c531659141344cd1fd0a4f28419497f9722a3daafe3b4186f6b6457e0905f90a35050565b6001600160a01b038316610e105760405163a9fbf51f60e01b81525f60048201526024016106ad565b6001600160a01b038216610e4257604051630b61174360e31b81526001600160a01b03831660048201526024016106ad565b6001600160a01b038381165f81815260056020908152604080832094871680845294825291829020805460ff191686151590811790915591519182527f17307eab39ab6107e8899845ad3d59bd9653f200f220920489ca2b5937696c31910160405180910390a3505050565b6001600160a01b0383163b15610fcf57604051630a85bd0160e11b81526001600160a01b0384169063150b7a0290610ef09088908890879087906004016116ed565b6020604051808303815f875af1925050508015610f2a575060408051601f3d908101601f19168201909252610f2791810190611729565b60015b610f91573d808015610f57576040519150601f19603f3d011682016040523d82523d5f602084013e610f5c565b606091505b5080515f03610f8957604051633250574960e11b81526001600160a01b03851660048201526024016106ad565b805160208201fd5b6001600160e01b03198116630a85bd0160e11b14610fcd57604051633250574960e11b81526001600160a01b03851660048201526024016106ad565b505b5050505050565b60605f610fe283611252565b60010190505f8167ffffffffffffffff81111561100157611001611544565b6040519080825280601f01601f19166020018201604052801561102b576020820181803683370190505b5090508181016020015b5f19016f181899199a1a9b1b9c1cb0b131b232b360811b600a86061a8153600a850494508461103557509392505050565b808061107a57506001600160a01b03821615155b1561113b575f61108984610be3565b90506001600160a01b038316158015906110b55750826001600160a01b0316816001600160a01b031614155b80156110c857506110c68184610a79565b155b156110f15760405163a9fbf51f60e01b81526001600160a01b03841660048201526024016106ad565b81156111395783856001600160a01b0316826001600160a01b03167f8c5be1e5ebec7d5bd14f71427d1e84f3dd0314c0f7b2291e5b200ac8c7c3b92560405160405180910390a45b505b50505f90815260046020526040902080546001600160a01b0319166001600160a01b0392909216919091179055565b6040516323b872dd60e01b5f8181526001600160a01b038781166004528616602452604485905291602083606481808c5af1925060015f511483166111c65783831516156111ba573d5f823e3d81fd5b5f883b113d1516831692505b604052505f60605295945050505050565b6111e18383611329565b6107fe335f858585610eae565b6111f983838361138a565b6107fe576001600160a01b03831661122757604051637e27328960e01b8152600481018290526024016106ad565b60405163177e802f60e01b81526001600160a01b0383166004820152602481018290526044016106ad565b5f8072184f03e93ff9f4daa797ed6e38ed64bf6a1f0160401b83106112905772184f03e93ff9f4daa797ed6e38ed64bf6a1f0160401b830492506040015b6d04ee2d6d415b85acef810000000083106112bc576d04ee2d6d415b85acef8100000000830492506020015b662386f26fc1000083106112da57662386f26fc10000830492506010015b6305f5e10083106112f2576305f5e100830492506008015b612710831061130657612710830492506004015b60648310611318576064830492506002015b600a831061045a5760010192915050565b6001600160a01b03821661135257604051633250574960e11b81525f60048201526024016106ad565b5f61135e83835f610ca4565b90506001600160a01b038116156107fe576040516339e3563760e11b81525f60048201526024016106ad565b5f6001600160a01b038316158015906113e65750826001600160a01b0316846001600160a01b031614806113c357506113c38484610a79565b806113e657505f828152600460205260409020546001600160a01b038481169116145b949350505050565b6001600160e01b031981168114610b97575f5ffd5b5f60208284031215611413575f5ffd5b8135610a72816113ee565b5f81518084528060208401602086015e5f602082860101526020601f19601f83011685010191505092915050565b602081525f610a72602083018461141e565b5f6020828403121561146e575f5ffd5b5035919050565b80356001600160a01b038116811461148b575f5ffd5b919050565b5f5f604083850312156114a1575f5ffd5b6114aa83611475565b946020939093013593505050565b5f602082840312156114c8575f5ffd5b610a7282611475565b5f5f5f606084860312156114e3575f5ffd5b6114ec84611475565b92506114fa60208501611475565b929592945050506040919091013590565b5f5f6040838503121561151c575f5ffd5b61152583611475565b915060208301358015158114611539575f5ffd5b809150509250929050565b634e487b7160e01b5f52604160045260245ffd5b5f5f5f5f6080858703121561156b575f5ffd5b61157485611475565b935061158260208601611475565b925060408501359150606085013567ffffffffffffffff8111156115a4575f5ffd5b8501601f810187136115b4575f5ffd5b803567ffffffffffffffff8111156115ce576115ce611544565b604051601f8201601f19908116603f0116810167ffffffffffffffff811182821017156115fd576115fd611544565b604052818152828201602001891015611614575f5ffd5b816020840160208301375f6020838301015280935050505092959194509250565b5f5f60408385031215611646575f5ffd5b61164f83611475565b915061165d60208401611475565b90509250929050565b600181811c9082168061167a57607f821691505b60208210810361169857634e487b7160e01b5f52602260045260245ffd5b50919050565b5f600182016116bb57634e487b7160e01b5f52601160045260245ffd5b5060010190565b5f81518060208401855e5f93019283525090919050565b5f6113e66116e783866116c2565b846116c2565b6001600160a01b03858116825284166020820152604081018390526080606082018190525f9061171f9083018461141e565b9695505050505050565b5f60208284031215611739575f5ffd5b8151610a72816113ee56fea26469706673582212206c4b0c1bb6cb8d06930de7c783113aef4d23823f0c66deeb0188f63d41191d5d64736f6c634300081c0033",
  "linkReferences": {},
  "deployedLinkReferences": {}
}